{
    "_format": "hh-sol-artifact-1",
    "contractName": "Transaction",
    "sourceName": "contracts/contract.sol",
    "abi": [
        {
            "anonymous": false,
            "inputs": [
                {
                    "indexed": false,
                    "internalType": "address",
                    "name": "sender",
                    "type": "address"
                },
                {
                    "indexed": false,
                    "internalType": "address",
                    "name": "receiver",
                    "type": "address"
                },
                {
                    "indexed": false,
                    "internalType": "uint256",
                    "name": "timestamp",
                    "type": "uint256"
                },
                {
                    "indexed": false,
                    "internalType": "uint256",
                    "name": "amount",
                    "type": "uint256"
                },
                {
                    "indexed": false,
                    "internalType": "string",
                    "name": "keyword",
                    "type": "string"
                },
                {
                    "indexed": false,
                    "internalType": "string",
                    "name": "msgg",
                    "type": "string"
                }
            ],
            "name": "transf",
            "type": "event"
        },
        {
            "inputs": [
                {
                    "internalType": "address payable",
                    "name": "receiver",
                    "type": "address"
                },
                {
                    "internalType": "uint256",
                    "name": "amount",
                    "type": "uint256"
                },
                {
                    "internalType": "string",
                    "name": "keyword",
                    "type": "string"
                },
                {
                    "internalType": "string",
                    "name": "msgg",
                    "type": "string"
                }
            ],
            "name": "addtoblock",
            "outputs": [],
            "stateMutability": "nonpayable",
            "type": "function"
        },
        {
            "inputs": [
                {
                    "internalType": "uint256",
                    "name": "",
                    "type": "uint256"
                }
            ],
            "name": "allofthem",
            "outputs": [
                {
                    "internalType": "address",
                    "name": "sender",
                    "type": "address"
                },
                {
                    "internalType": "address",
                    "name": "receiver",
                    "type": "address"
                },
                {
                    "internalType": "uint256",
                    "name": "amount",
                    "type": "uint256"
                },
                {
                    "internalType": "uint256",
                    "name": "timestamp",
                    "type": "uint256"
                },
                {
                    "internalType": "string",
                    "name": "keyword",
                    "type": "string"
                },
                {
                    "internalType": "string",
                    "name": "msgg",
                    "type": "string"
                }
            ],
            "stateMutability": "view",
            "type": "function"
        },
        {
            "inputs": [],
            "name": "counter",
            "outputs": [
                {
                    "internalType": "uint256",
                    "name": "",
                    "type": "uint256"
                }
            ],
            "stateMutability": "view",
            "type": "function"
        },
        {
            "inputs": [],
            "name": "getalltrans",
            "outputs": [
                {
                    "components": [
                        {
                            "internalType": "address",
                            "name": "sender",
                            "type": "address"
                        },
                        {
                            "internalType": "address",
                            "name": "receiver",
                            "type": "address"
                        },
                        {
                            "internalType": "uint256",
                            "name": "amount",
                            "type": "uint256"
                        },
                        {
                            "internalType": "uint256",
                            "name": "timestamp",
                            "type": "uint256"
                        },
                        {
                            "internalType": "string",
                            "name": "keyword",
                            "type": "string"
                        },
                        {
                            "internalType": "string",
                            "name": "msgg",
                            "type": "string"
                        }
                    ],
                    "internalType": "struct Transaction.transfstruct[]",
                    "name": "",
                    "type": "tuple[]"
                }
            ],
            "stateMutability": "view",
            "type": "function"
        },
        {
            "inputs": [],
            "name": "getcounter",
            "outputs": [
                {
                    "internalType": "uint256",
                    "name": "",
                    "type": "uint256"
                }
            ],
            "stateMutability": "view",
            "type": "function"
        }
    ],
    "bytecode": "0x608060405234801561001057600080fd5b506110c5806100206000396000f3fe608060405234801561001057600080fd5b50600436106100575760003560e01c806322d4cbe71461005c57806342b695661461007857806361bc221a146100965780636f762876146100b4578063df3689a1146100e9575b600080fd5b61007660048036038101906100719190610895565b610107565b005b6100806102b9565b60405161008d9190610b35565b60405180910390f35b61009e6104fc565b6040516100ab9190610b66565b60405180910390f35b6100ce60048036038101906100c99190610b81565b610502565b6040516100e096959493929190610c07565b60405180910390f35b6100f161069e565b6040516100fe9190610b66565b60405180910390f35b60008081548092919061011990610ca5565b919050555060016040518060c001604052803373ffffffffffffffffffffffffffffffffffffffff1681526020018673ffffffffffffffffffffffffffffffffffffffff16815260200185815260200142815260200184815260200183815250908060018154018082558091505060019003906000526020600020906006020160009091909190915060008201518160000160006101000a81548173ffffffffffffffffffffffffffffffffffffffff021916908373ffffffffffffffffffffffffffffffffffffffff16021790555060208201518160010160006101000a81548173ffffffffffffffffffffffffffffffffffffffff021916908373ffffffffffffffffffffffffffffffffffffffff160217905550604082015181600201556060820151816003015560808201518160040190816102599190610ef9565b5060a082015181600501908161026f9190610ef9565b5050507fc8e1a365d9a0418c55b0b42f0650d792d8cf57bbfbcfe0a9d23923d81c6fd0ca3385428686866040516102ab96959493929190611020565b60405180910390a150505050565b60606001805480602002602001604051908101604052809291908181526020016000905b828210156104f357838290600052602060002090600602016040518060c00160405290816000820160009054906101000a900473ffffffffffffffffffffffffffffffffffffffff1673ffffffffffffffffffffffffffffffffffffffff1673ffffffffffffffffffffffffffffffffffffffff1681526020016001820160009054906101000a900473ffffffffffffffffffffffffffffffffffffffff1673ffffffffffffffffffffffffffffffffffffffff1673ffffffffffffffffffffffffffffffffffffffff16815260200160028201548152602001600382015481526020016004820180546103d090610d1c565b80601f01602080910402602001604051908101604052809291908181526020018280546103fc90610d1c565b80156104495780601f1061041e57610100808354040283529160200191610449565b820191906000526020600020905b81548152906001019060200180831161042c57829003601f168201915b5050505050815260200160058201805461046290610d1c565b80601f016020809104026020016040519081016040528092919081815260200182805461048e90610d1c565b80156104db5780601f106104b0576101008083540402835291602001916104db565b820191906000526020600020905b8154815290600101906020018083116104be57829003601f168201915b505050505081525050815260200190600101906102dd565b50505050905090565b60005481565b6001818154811061051257600080fd5b90600052602060002090600602016000915090508060000160009054906101000a900473ffffffffffffffffffffffffffffffffffffffff16908060010160009054906101000a900473ffffffffffffffffffffffffffffffffffffffff169080600201549080600301549080600401805461058d90610d1c565b80601f01602080910402602001604051908101604052809291908181526020018280546105b990610d1c565b80156106065780601f106105db57610100808354040283529160200191610606565b820191906000526020600020905b8154815290600101906020018083116105e957829003601f168201915b50505050509080600501805461061b90610d1c565b80601f016020809104026020016040519081016040528092919081815260200182805461064790610d1c565b80156106945780601f1061066957610100808354040283529160200191610694565b820191906000526020600020905b81548152906001019060200180831161067757829003601f168201915b5050505050905086565b60008054905090565b6000604051905090565b600080fd5b600080fd5b600073ffffffffffffffffffffffffffffffffffffffff82169050919050565b60006106e6826106bb565b9050919050565b6106f6816106db565b811461070157600080fd5b50565b600081359050610713816106ed565b92915050565b6000819050919050565b61072c81610719565b811461073757600080fd5b50565b60008135905061074981610723565b92915050565b600080fd5b600080fd5b6000601f19601f8301169050919050565b7f4e487b7100000000000000000000000000000000000000000000000000000000600052604160045260246000fd5b6107a282610759565b810181811067ffffffffffffffff821117156107c1576107c061076a565b5b80604052505050565b60006107d46106a7565b90506107e08282610799565b919050565b600067ffffffffffffffff821115610800576107ff61076a565b5b61080982610759565b9050602081019050919050565b82818337600083830152505050565b6000610838610833846107e5565b6107ca565b90508281526020810184848401111561085457610853610754565b5b61085f848285610816565b509392505050565b600082601f83011261087c5761087b61074f565b5b813561088c848260208601610825565b91505092915050565b600080600080608085870312156108af576108ae6106b1565b5b60006108bd87828801610704565b94505060206108ce8782880161073a565b935050604085013567ffffffffffffffff8111156108ef576108ee6106b6565b5b6108fb87828801610867565b925050606085013567ffffffffffffffff81111561091c5761091b6106b6565b5b61092887828801610867565b91505092959194509250565b600081519050919050565b600082825260208201905092915050565b6000819050602082019050919050565b600061096b826106bb565b9050919050565b61097b81610960565b82525050565b61098a81610719565b82525050565b600081519050919050565b600082825260208201905092915050565b60005b838110156109ca5780820151818401526020810190506109af565b60008484015250505050565b60006109e182610990565b6109eb818561099b565b93506109fb8185602086016109ac565b610a0481610759565b840191505092915050565b600060c083016000830151610a276000860182610972565b506020830151610a3a6020860182610972565b506040830151610a4d6040860182610981565b506060830151610a606060860182610981565b5060808301518482036080860152610a7882826109d6565b91505060a083015184820360a0860152610a9282826109d6565b9150508091505092915050565b6000610aab8383610a0f565b905092915050565b6000602082019050919050565b6000610acb82610934565b610ad5818561093f565b935083602082028501610ae785610950565b8060005b85811015610b235784840389528151610b048582610a9f565b9450610b0f83610ab3565b925060208a01995050600181019050610aeb565b50829750879550505050505092915050565b60006020820190508181036000830152610b4f8184610ac0565b905092915050565b610b6081610719565b82525050565b6000602082019050610b7b6000830184610b57565b92915050565b600060208284031215610b9757610b966106b1565b5b6000610ba58482850161073a565b91505092915050565b610bb781610960565b82525050565b600082825260208201905092915050565b6000610bd982610990565b610be38185610bbd565b9350610bf38185602086016109ac565b610bfc81610759565b840191505092915050565b600060c082019050610c1c6000830189610bae565b610c296020830188610bae565b610c366040830187610b57565b610c436060830186610b57565b8181036080830152610c558185610bce565b905081810360a0830152610c698184610bce565b9050979650505050505050565b7f4e487b7100000000000000000000000000000000000000000000000000000000600052601160045260246000fd5b6000610cb082610719565b91507fffffffffffffffffffffffffffffffffffffffffffffffffffffffffffffffff8203610ce257610ce1610c76565b5b600182019050919050565b7f4e487b7100000000000000000000000000000000000000000000000000000000600052602260045260246000fd5b60006002820490506001821680610d3457607f821691505b602082108103610d4757610d46610ced565b5b50919050565b60008190508160005260206000209050919050565b60006020601f8301049050919050565b600082821b905092915050565b600060088302610daf7fffffffffffffffffffffffffffffffffffffffffffffffffffffffffffffffff82610d72565b610db98683610d72565b95508019841693508086168417925050509392505050565b6000819050919050565b6000610df6610df1610dec84610719565b610dd1565b610719565b9050919050565b6000819050919050565b610e1083610ddb565b610e24610e1c82610dfd565b848454610d7f565b825550505050565b600090565b610e39610e2c565b610e44818484610e07565b505050565b5b81811015610e6857610e5d600082610e31565b600181019050610e4a565b5050565b601f821115610ead57610e7e81610d4d565b610e8784610d62565b81016020851015610e96578190505b610eaa610ea285610d62565b830182610e49565b50505b505050565b600082821c905092915050565b6000610ed060001984600802610eb2565b1980831691505092915050565b6000610ee98383610ebf565b9150826002028217905092915050565b610f0282610990565b67ffffffffffffffff811115610f1b57610f1a61076a565b5b610f258254610d1c565b610f30828285610e6c565b600060209050601f831160018114610f635760008415610f51578287015190505b610f5b8582610edd565b865550610fc3565b601f198416610f7186610d4d565b60005b82811015610f9957848901518255600182019150602085019450602081019050610f74565b86831015610fb65784890151610fb2601f891682610ebf565b8355505b6001600288020188555050505b505050505050565b6000610fe6610fe1610fdc846106bb565b610dd1565b6106bb565b9050919050565b6000610ff882610fcb565b9050919050565b600061100a82610fed565b9050919050565b61101a81610fff565b82525050565b600060c0820190506110356000830189610bae565b6110426020830188611011565b61104f6040830187610b57565b61105c6060830186610b57565b818103608083015261106e8185610bce565b905081810360a08301526110828184610bce565b905097965050505050505056fea264697066735822122051f3079a3b4591562df5de93b5ef74fe1735b0ac028dc925ac16032079aa035364736f6c63430008130033",
    "linkReferences": {},
    "deployedLinkReferences": {}
}